{
  "contractName": "DecentralBank",
  "abi": [
    {
      "inputs": [
        {
          "internalType": "contract RWD",
          "name": "_rwd",
          "type": "address"
        },
        {
          "internalType": "contract Tether",
          "name": "_tether",
          "type": "address"
        }
      ],
      "stateMutability": "nonpayable",
      "type": "constructor"
    },
    {
      "inputs": [
        {
          "internalType": "address",
          "name": "",
          "type": "address"
        }
      ],
      "name": "hasStaked",
      "outputs": [
        {
          "internalType": "bool",
          "name": "",
          "type": "bool"
        }
      ],
      "stateMutability": "view",
      "type": "function",
      "constant": true
    },
    {
      "inputs": [
        {
          "internalType": "address",
          "name": "",
          "type": "address"
        }
      ],
      "name": "isStaking",
      "outputs": [
        {
          "internalType": "bool",
          "name": "",
          "type": "bool"
        }
      ],
      "stateMutability": "view",
      "type": "function",
      "constant": true
    },
    {
      "inputs": [],
      "name": "name",
      "outputs": [
        {
          "internalType": "string",
          "name": "",
          "type": "string"
        }
      ],
      "stateMutability": "view",
      "type": "function",
      "constant": true
    },
    {
      "inputs": [],
      "name": "owner",
      "outputs": [
        {
          "internalType": "address",
          "name": "",
          "type": "address"
        }
      ],
      "stateMutability": "view",
      "type": "function",
      "constant": true
    },
    {
      "inputs": [],
      "name": "rwd",
      "outputs": [
        {
          "internalType": "contract RWD",
          "name": "",
          "type": "address"
        }
      ],
      "stateMutability": "view",
      "type": "function",
      "constant": true
    },
    {
      "inputs": [
        {
          "internalType": "uint256",
          "name": "",
          "type": "uint256"
        }
      ],
      "name": "stakers",
      "outputs": [
        {
          "internalType": "address",
          "name": "",
          "type": "address"
        }
      ],
      "stateMutability": "view",
      "type": "function",
      "constant": true
    },
    {
      "inputs": [
        {
          "internalType": "address",
          "name": "",
          "type": "address"
        }
      ],
      "name": "stakingBlanace",
      "outputs": [
        {
          "internalType": "uint256",
          "name": "",
          "type": "uint256"
        }
      ],
      "stateMutability": "view",
      "type": "function",
      "constant": true
    },
    {
      "inputs": [],
      "name": "tether",
      "outputs": [
        {
          "internalType": "contract Tether",
          "name": "",
          "type": "address"
        }
      ],
      "stateMutability": "view",
      "type": "function",
      "constant": true
    },
    {
      "inputs": [
        {
          "internalType": "uint256",
          "name": "_amount",
          "type": "uint256"
        }
      ],
      "name": "depositTokens",
      "outputs": [],
      "stateMutability": "nonpayable",
      "type": "function"
    },
    {
      "inputs": [],
      "name": "issueTokens",
      "outputs": [],
      "stateMutability": "nonpayable",
      "type": "function"
    },
    {
      "inputs": [],
      "name": "unstakeTokens",
      "outputs": [],
      "stateMutability": "nonpayable",
      "type": "function"
    }
  ],
  "bytecode": "0x60806040526040518060400160405280600e81526020017f446563656e7472616c2042616e6b000000000000000000000000000000000000815250600090805190602001906200005192919062000150565b503480156200005f57600080fd5b50604051620013fc380380620013fc8339818101604052810190620000859190620002c3565b81600360006101000a81548173ffffffffffffffffffffffffffffffffffffffff021916908373ffffffffffffffffffffffffffffffffffffffff16021790555080600260006101000a81548173ffffffffffffffffffffffffffffffffffffffff021916908373ffffffffffffffffffffffffffffffffffffffff16021790555033600160006101000a81548173ffffffffffffffffffffffffffffffffffffffff021916908373ffffffffffffffffffffffffffffffffffffffff16021790555050506200036f565b8280546200015e9062000339565b90600052602060002090601f016020900481019282620001825760008555620001ce565b82601f106200019d57805160ff1916838001178555620001ce565b82800160010185558215620001ce579182015b82811115620001cd578251825591602001919060010190620001b0565b5b509050620001dd9190620001e1565b5090565b5b80821115620001fc576000816000905550600101620001e2565b5090565b600080fd5b600073ffffffffffffffffffffffffffffffffffffffff82169050919050565b6000620002328262000205565b9050919050565b6000620002468262000225565b9050919050565b620002588162000239565b81146200026457600080fd5b50565b60008151905062000278816200024d565b92915050565b60006200028b8262000225565b9050919050565b6200029d816200027e565b8114620002a957600080fd5b50565b600081519050620002bd8162000292565b92915050565b60008060408385031215620002dd57620002dc62000200565b5b6000620002ed8582860162000267565b92505060206200030085828601620002ac565b9150509250929050565b7f4e487b7100000000000000000000000000000000000000000000000000000000600052602260045260246000fd5b600060028204905060018216806200035257607f821691505b602082108114156200036957620003686200030a565b5b50919050565b61107d806200037f6000396000f3fe608060405234801561001057600080fd5b50600436106100a95760003560e01c80638da5cb5b116100715780638da5cb5b146101425780638fe9e48614610160578063a5ce413b14610190578063c93c8f341461019a578063dd49756e146101ca578063fd5e6dd1146101e6576100a9565b806306fdde03146100ae5780631a8972d3146100cc5780635efc071a146100ea57806360ab5852146101085780636f49712b14610112575b600080fd5b6100b6610216565b6040516100c39190610a7d565b60405180910390f35b6100d46102a4565b6040516100e19190610b1e565b60405180910390f35b6100f26102ca565b6040516100ff9190610b5a565b60405180910390f35b6101106102f0565b005b61012c60048036038101906101279190610bb8565b610465565b6040516101399190610c00565b60405180910390f35b61014a610485565b6040516101579190610c2a565b60405180910390f35b61017a60048036038101906101759190610bb8565b6104ab565b6040516101879190610c5e565b60405180910390f35b6101986104c3565b005b6101b460048036038101906101af9190610bb8565b61069a565b6040516101c19190610c00565b60405180910390f35b6101e460048036038101906101df9190610ca5565b6106ba565b005b61020060048036038101906101fb9190610ca5565b6109a5565b60405161020d9190610c2a565b60405180910390f35b6000805461022390610d01565b80601f016020809104026020016040519081016040528092919081815260200182805461024f90610d01565b801561029c5780601f106102715761010080835404028352916020019161029c565b820191906000526020600020905b81548152906001019060200180831161027f57829003601f168201915b505050505081565b600360009054906101000a900473ffffffffffffffffffffffffffffffffffffffff1681565b600260009054906101000a900473ffffffffffffffffffffffffffffffffffffffff1681565b60005b6004805490508110156104625760006004828154811061031657610315610d33565b5b9060005260206000200160009054906101000a900473ffffffffffffffffffffffffffffffffffffffff16905060006009600560008473ffffffffffffffffffffffffffffffffffffffff1673ffffffffffffffffffffffffffffffffffffffff168152602001908152602001600020546103919190610dc0565b9050600081111561044d57600360009054906101000a900473ffffffffffffffffffffffffffffffffffffffff1673ffffffffffffffffffffffffffffffffffffffff1663a9059cbb83836040518363ffffffff1660e01b81526004016103f9929190610df1565b602060405180830381600087803b15801561041357600080fd5b505af1158015610427573d6000803e3d6000fd5b505050506040513d601f19601f8201168201806040525081019061044b9190610e46565b505b5050808061045a90610e73565b9150506102f3565b50565b60076020528060005260406000206000915054906101000a900460ff1681565b600160009054906101000a900473ffffffffffffffffffffffffffffffffffffffff1681565b60056020528060005260406000206000915090505481565b6000600560003373ffffffffffffffffffffffffffffffffffffffff1673ffffffffffffffffffffffffffffffffffffffff1681526020019081526020016000205490506000811161054a576040517f08c379a000000000000000000000000000000000000000000000000000000000815260040161054190610f2e565b60405180910390fd5b600260009054906101000a900473ffffffffffffffffffffffffffffffffffffffff1673ffffffffffffffffffffffffffffffffffffffff1663a9059cbb33836040518363ffffffff1660e01b81526004016105a7929190610df1565b602060405180830381600087803b1580156105c157600080fd5b505af11580156105d5573d6000803e3d6000fd5b505050506040513d601f19601f820116820180604052508101906105f99190610e46565b506000600560003373ffffffffffffffffffffffffffffffffffffffff1673ffffffffffffffffffffffffffffffffffffffff168152602001908152602001600020819055506000600760003373ffffffffffffffffffffffffffffffffffffffff1673ffffffffffffffffffffffffffffffffffffffff16815260200190815260200160002060006101000a81548160ff02191690831515021790555050565b60066020528060005260406000206000915054906101000a900460ff1681565b600081116106fd576040517f08c379a00000000000000000000000000000000000000000000000000000000081526004016106f490610f9a565b60405180910390fd5b600260009054906101000a900473ffffffffffffffffffffffffffffffffffffffff1673ffffffffffffffffffffffffffffffffffffffff166323b872dd3330846040518463ffffffff1660e01b815260040161075c93929190610fba565b602060405180830381600087803b15801561077657600080fd5b505af115801561078a573d6000803e3d6000fd5b505050506040513d601f19601f820116820180604052508101906107ae9190610e46565b5080600560003373ffffffffffffffffffffffffffffffffffffffff1673ffffffffffffffffffffffffffffffffffffffff168152602001908152602001600020546107fa9190610ff1565b600560003373ffffffffffffffffffffffffffffffffffffffff1673ffffffffffffffffffffffffffffffffffffffff16815260200190815260200160002081905550600660003373ffffffffffffffffffffffffffffffffffffffff1673ffffffffffffffffffffffffffffffffffffffff16815260200190815260200160002060009054906101000a900460ff166108f2576004339080600181540180825580915050600190039060005260206000200160009091909190916101000a81548173ffffffffffffffffffffffffffffffffffffffff021916908373ffffffffffffffffffffffffffffffffffffffff1602179055505b6001600760003373ffffffffffffffffffffffffffffffffffffffff1673ffffffffffffffffffffffffffffffffffffffff16815260200190815260200160002060006101000a81548160ff0219169083151502179055506001600660003373ffffffffffffffffffffffffffffffffffffffff1673ffffffffffffffffffffffffffffffffffffffff16815260200190815260200160002060006101000a81548160ff02191690831515021790555050565b600481815481106109b557600080fd5b906000526020600020016000915054906101000a900473ffffffffffffffffffffffffffffffffffffffff1681565b600081519050919050565b600082825260208201905092915050565b60005b83811015610a1e578082015181840152602081019050610a03565b83811115610a2d576000848401525b50505050565b6000601f19601f8301169050919050565b6000610a4f826109e4565b610a5981856109ef565b9350610a69818560208601610a00565b610a7281610a33565b840191505092915050565b60006020820190508181036000830152610a978184610a44565b905092915050565b600073ffffffffffffffffffffffffffffffffffffffff82169050919050565b6000819050919050565b6000610ae4610adf610ada84610a9f565b610abf565b610a9f565b9050919050565b6000610af682610ac9565b9050919050565b6000610b0882610aeb565b9050919050565b610b1881610afd565b82525050565b6000602082019050610b336000830184610b0f565b92915050565b6000610b4482610aeb565b9050919050565b610b5481610b39565b82525050565b6000602082019050610b6f6000830184610b4b565b92915050565b600080fd5b6000610b8582610a9f565b9050919050565b610b9581610b7a565b8114610ba057600080fd5b50565b600081359050610bb281610b8c565b92915050565b600060208284031215610bce57610bcd610b75565b5b6000610bdc84828501610ba3565b91505092915050565b60008115159050919050565b610bfa81610be5565b82525050565b6000602082019050610c156000830184610bf1565b92915050565b610c2481610b7a565b82525050565b6000602082019050610c3f6000830184610c1b565b92915050565b6000819050919050565b610c5881610c45565b82525050565b6000602082019050610c736000830184610c4f565b92915050565b610c8281610c45565b8114610c8d57600080fd5b50565b600081359050610c9f81610c79565b92915050565b600060208284031215610cbb57610cba610b75565b5b6000610cc984828501610c90565b91505092915050565b7f4e487b7100000000000000000000000000000000000000000000000000000000600052602260045260246000fd5b60006002820490506001821680610d1957607f821691505b60208210811415610d2d57610d2c610cd2565b5b50919050565b7f4e487b7100000000000000000000000000000000000000000000000000000000600052603260045260246000fd5b7f4e487b7100000000000000000000000000000000000000000000000000000000600052601260045260246000fd5b7f4e487b7100000000000000000000000000000000000000000000000000000000600052601160045260246000fd5b6000610dcb82610c45565b9150610dd683610c45565b925082610de657610de5610d62565b5b828204905092915050565b6000604082019050610e066000830185610c1b565b610e136020830184610c4f565b9392505050565b610e2381610be5565b8114610e2e57600080fd5b50565b600081519050610e4081610e1a565b92915050565b600060208284031215610e5c57610e5b610b75565b5b6000610e6a84828501610e31565b91505092915050565b6000610e7e82610c45565b91507fffffffffffffffffffffffffffffffffffffffffffffffffffffffffffffffff821415610eb157610eb0610d91565b5b600182019050919050565b7f63616e6e6f7420756e7374616b652076616c756573206c657373207468616e2060008201527f7a65726f00000000000000000000000000000000000000000000000000000000602082015250565b6000610f186024836109ef565b9150610f2382610ebc565b604082019050919050565b60006020820190508181036000830152610f4781610f0b565b9050919050565b7f616d6f756e742063616e6e6f7420626520300000000000000000000000000000600082015250565b6000610f846012836109ef565b9150610f8f82610f4e565b602082019050919050565b60006020820190508181036000830152610fb381610f77565b9050919050565b6000606082019050610fcf6000830186610c1b565b610fdc6020830185610c1b565b610fe96040830184610c4f565b949350505050565b6000610ffc82610c45565b915061100783610c45565b9250827fffffffffffffffffffffffffffffffffffffffffffffffffffffffffffffffff0382111561103c5761103b610d91565b5b82820190509291505056fea2646970667358221220c6cc82356d4a3e50fc31be0b8834ca56702420efa512397ec505139cdceaa8e464736f6c63430008090033",
  "immutableReferences": {},
  "source": "// SPDX-License-Identifier: MIT\npragma solidity >=0.4.22 <0.9.0;\n// importing other contracts\nimport './RWD.sol';\nimport './Tether.sol';\n\n\n\n\ncontract DecentralBank {\n    //setup variables for the bank\n    string public name = 'Decentral Bank';\n    address public owner;\n\n    Tether public tether;\n    RWD public rwd;\n\n    //keep track of our stakers\n    address[] public stakers;\n\n    // keep track of who is staking what\n    mapping(address => uint) public stakingBlanace;\n    // to check who staked before or not\n    mapping(address => bool) public hasStaked;\n    // to check if investor is currently staking\n    mapping(address => bool) public isStaking;\n\n    // the constructor takes reward and tehter token and set arguments to the contracts\n    constructor(RWD _rwd, Tether _tether) public {\n        rwd = _rwd;\n        tether = _tether;\n        owner = msg.sender;\n    }\n\n    function depositTokens(uint _amount) public{\n        // the amount must be greater than zero to stake\n        require(_amount>0,'amount cannot be 0');\n\n        // trasnfer tether tokens to this contract address from the person calling this contract for staking\n        tether.transferFrom(msg.sender, address(this), _amount);\n\n        // updtae staking balance\n        stakingBlanace[msg.sender] = stakingBlanace[msg.sender]+_amount;\n\n        // check if they have not staked before\n        if(!hasStaked[msg.sender]){\n            stakers.push(msg.sender);\n        }\n\n        // update staking blance\n        isStaking[msg.sender] = true;\n        hasStaked[msg.sender] = true;\n        \n    }\n\n    // issue reward tokens for the stakers\n    function issueTokens() public{\n\n        // only owner issues tokens\n        //require(msg.sender == owner, 'The issuer must be the owner');\n\n        // loop to itterate through and stakers and reward who are staking\n        for(uint i = 0;i<stakers.length;i++){\n            //keep track of each address\n            address recipient = stakers[i];\n            // get how much the recipient is staking\n            uint balance =  stakingBlanace[recipient]/9;\n            if(balance > 0){\n                // send transfer rward tokens to user\n                rwd.transfer(recipient, balance);\n            }\n        }\n\n    }\n\n    // unstaking function\n    function unstakeTokens() public {\n\n        // get balance of staking\n        uint balance = stakingBlanace[msg.sender];\n\n        // require amount to be greater than 0\n        require(balance>0,'cannot unstake values less than zero');\n\n        // transfer thet tokens unstaked to the specified contract adress from the bank\n        tether.transfer(msg.sender, balance);\n\n        // reset staking balance\n        stakingBlanace[msg.sender] = 0;\n\n        // Updating staking status\n        isStaking[msg.sender] = false;\n    } \n\n}\n",
  "sourcePath": "C:\\Users\\notal\\Desktop\\final project\\Staking-Dapp\\src\\contracts\\DecentralBank.sol",
  "compiler": {
    "name": "solc",
    "version": "0.8.9+commit.e5eed63a.Emscripten.clang"
  },
  "schemaVersion": "3.4.3",
  "updatedAt": "2021-10-24T15:35:59.125Z",
  "networkType": "ethereum",
  "devdoc": {
    "kind": "dev",
    "methods": {},
    "version": 1
  },
  "userdoc": {
    "kind": "user",
    "methods": {},
    "version": 1
  }
}